:020000020000FC
:02000000FFC33C
:100400004D61726B2773206661766F726974653A0D
:100410000D0A0000312E20466F6F640D0A00322E47
:1004200020554620436F757273650D0A0000332E08
:1004300020486F6262790D0A0000342E2051756FDA
:1004400074650D0A0000352E204D6F7669650D0A22
:100450000000362E2052652D646973706C6179201E
:100460006D656E750D0A0000443A20446F6E650D8F
:100470000A004D61726B2773206661766F72697432
:100480006520666F6F64206973206974616C6961AF
:100490006E2E0D0A00004D61726B27732066617627
:1004A0006F7269746520554620636F75727365209D
:1004B00069732045454C333730312E0D0A004D61AC
:1004C000726B2773206661766F7269746520686F3E
:1004D0006262792069732066696E616E63652E0DB4
:1004E0000A004D61726B2773206661766F726974C2
:1004F000652071756F7465206973202254686520CA
:100500006D6F726520796F75206C6561726E2C203D
:10051000746865206D6F726520796F7520656172F2
:100520006E2E22202D2057617272656E20427566F4
:100530006665742E0D0A00004D61726B277320668C
:1005400061766F72697465206D6F76696520697375
:10055000205468652050757273756974206F662029
:1005600048617070696E6573732E0D0A0000446FE8
:060570006E65210D0A007A
:1008000010E036D0AFEFADBFAFE3AEBF49D0F0E000
:10081000EBBFF4E0E0E085D065D0113379F012331E
:1008200089F0133399F01433A9F01533B9F0163366
:10083000C9F01436C9F01434B9F0EECFF4E0E2E7B1
:100840005AD0EACFF4E0E6E956D0E6CFF4E0EEEB9A
:1008500052D0E2CFF4E0E2EE4ED0DECFF5E0E8E3B6
:100860004AD0DACF5ED0D8CFF5E0EEE644D0FFCF65
:100870000F931F9302E0009350000091510002700B
:10088000023009F0FACF08ED0093340010934100D4
:100890000093340001E0009340001F910F910895F0
:1008A0000F9308E00093610600E1009362060BE6F7
:1008B0000093A60900EB0093A70903E30093A509A1
:1008C00008E10093A4090F9108950F930091A109E5
:1008D00005FFFCCF1093A0090091A10906FFFCCFF2
:1008E0000F9108950F930091A10907FFFCCF10917C
:1008F000A0090F9108950F930E2F0F930F2F0F93B1
:1009000000913B000F931591103011F0DEDFFBCF0B
:100910000F91E02F0BBF0F91F02F0F91E02F0F9150
:1009200008950F930E2F0F930F2F0F9300913B00FD
:100930000F93E0E0F4E0DFDFE4E1F4E0DCDFEEE1A0
:10094000F4E0D9DFEEE2F4E0D6DFEAE3F4E0D3DF6F
:10095000E6E4F4E0D0DFE2E5F4E0CDDFE8E6F4E061
:10096000CADF0F91E02F0BBF0F91F02F0F91E02FF7
:040970000F91089546
:00000001FF
