S00C00004C6162372E73726563D2
S11300000C94FE000C941C010C941C010C941C0117
S11300100C941C010C941C010C941C010C941C01E8
S11300200C941C010C941C010C941C010C941C01D8
S11300300C941C010C941C010C949E020C941C0145
S11300400C941C010C941C010C941C010C941C01B8
S11300500C94AD020C941C010C941C010C941C0116
S11300600C941C010C941C010C941C010C941C0198
S11300700C941C010C941C010C941C010C941C0188
S11300800C941C010C941C010C941C010C941C0178
S11300900C941C010C941C010C941C010C941C0168
S11300A00C941C010C941C010C941C010C941C0158
S11300B00C941C010C941C010C941C010C941C0148
S11300C00C941C010C941C010C941C010C941C0138
S11300D00C941C010C941C010C941C010C941C0128
S11300E00C941C010C941C010C941C010C941C0118
S11300F00C941C010C941C010C941C010C941C0108
S11301000C941C010C941C010C941C010C941C01F7
S11301100C941C010C941C010C941C010C941C01E7
S11301200C941C010C941C010C941C010C941C01D7
S11301300C941C010C941C010C941C010C941C01C7
S11301400C941C010C941C010C941C010C941C01B7
S11301500C941C010C941C010C941C010C941C01A7
S11301600C94C0020C941C010C941C010C941C01F2
S11301700C941C010C941C010C941C010C941C0187
S11301800C941C010C941C010C941C010C941C0177
S11301900C941C010C941C010C941C010C941C0167
S11301A00C941C010C941C010C941C010C941C0157
S11301B00C941C010C941C010C941C010C941C0147
S11301C00C941C010C941C010C941C010C941C0137
S11301D00C941C010C941C010C941C010C941C0127
S11301E00C941C010C941C010C941C010C941C0117
S11301F00C941C010C941C010C941C0111241FBEB2
S1130200CFEFCDBFDFE3DEBF00E00CBF18BE19BEE9
S11302101ABE1BBE14E2A0E0B0E2E6ECF8E000E097
S11302200BBF02C007900D92A230B107D9F71BBED5
S11302300E94FC010C9461040C94000082E0809301
S113024050008091510081FFFCCF88ED84BF91E084
S11302509093400084BF10924100089588E08093F9
S1130260610680E18093620691E09093A609109262
S1130270A70993E09093A50998E19093A40980932A
S1130280A309089581E08093A2008FB780688FBF8F
S1130290089588E080930106E0E0F3E080E2818342
S11302A088E18283128E138E89E0808308951092F0
S11302B0000180E4809300018091000186FDFCCF61
S11302C080E88093000185EA8093100189E580939A
S11302D0120180E48093130180E092E08093140182
S11302E0909315011092160182E092E28093180116
S11302F09093190110921A018AE180931C0183E002
S113030080931D0110921E0108958AEA91E0809362
S113031026089093270881E080930608109200082D
S113032020E030E120936608309367088093460804
S113033087E0809340080895809110018F7780931F
S11303401001809110018091002081110CC082E085
S113035092E2809318019093190110921A0181E09E
S1130360809300200CC0813051F482E090E28093AD
S113037018019093190110921A0110920020809193
S1130380100180688093100180E092E08093140152
S1130390909315010895CF92DF92EF92FF926B0133
S11303A07C0120E030E0A9010E94460320E030E017
S11303B040E05FE387FF05C0C701B6010E94D90290
S11303C004C0C701B6010E94DA020E94BD03CB013A
S11303D0FF90EF90DF90CF9008959B01AC0160E017
S11303E07CE989EF97E40E944B030E94CB01809340
S11303F026089093270808950E941E010E942E014A
S11304000E9449010E9457010E9485010E944201F5
S113041080E88093410680934406C1E090910120D6
S1130420892F8F7D833529F40E949C01109201202D
S1130430F5CF873539F4C093000860E070ED82E8A9
S113044094E474C0933339F4C09300086CE577E9FD
S11304508AE894E46BC0853439F4C09300086FE1F2
S113046075ED82E994E462C0943339F4C0930008D2
S113047062E570E98BE994E459C0823539F4C0939C
S1130480000862E570ED84EA94E450C0843539F4E0
S1130490C09300086FE17DE98EEA94E447C0963387
S11304A039F4C09300086CE57FEF88EB94E43EC018
S11304B0893539F4C09300086CE57FEF83EC94E44C
S11304C035C0973339F4C09300086AE077EA8FECBB
S11304D094E42CC0853539F4C093000860E070E0E2
S11304E08CED94E423C0983339F4C09300086FE191
S11304F075E189EE94E41AC0893439F4C093000894
S113050066EF70EF86EF94E411C08F3439F4C09332
S1130510000860E070ED82E095E408C0993349F486
S1130520C09300086CE577E98AE095E40E94ED0148
S113053075CF10921A0310921B0370CF1F920F9263
S11305400FB60F92112408B60F9218BE0F9008BE72
S11305500F900FBE0F901F9018951F920F920FB619
S11305600F92112408B60F9218BE10920120109217
S113057000080F9008BE0F900FBE0F901F901895A3
S11305801F920F920FB60F92112408B60F9218BE45
S11305908F9310926008109261088091A009809353
S11305A001208F910F9008BE0F900FBE0F901F90E7
S11305B018955058BB27AA270E94F1020C942704CF
S11305C00E94190438F00E94200420F039F49F3F5F
S11305D019F426F40C9416040EF4E095E7FB0C943D
S11305E01004E92F0E94380458F3BA1762077307FE
S11305F08407950720F079F4A6F50C945A040EF4B8
S1130600E0950B2EBA2FA02D0B01B90190010C011E
S1130610CA01A0011124FF27591B99F0593F50F436
S1130620503E68F11A16F040A22F232F342F44278E
S1130630585FF3CF469537952795A795F040539586
S1130640C9F77EF41F16BA0B620B730B840BBAF056
S11306509150A1F0FF0FBB1F661F771F881FC2F7C1
S11306600EC0BA0F621F731F841F48F487957795D5
S11306706795B795F7959E3F08F0B0CF9395880F8F
S113068008F09927EE0F9795879508950E94EC033B
S113069008F481E008950E945F030C9427040E94EB
S11306A0200458F00E94190440F029F45F3F29F017
S11306B00C94100451110C945B040C9416040E94C5
S11306C0380468F39923B1F3552391F3951B550B23
S11306D0BB27AA2762177307840738F09F5F5F4F11
S11306E0220F331F441FAA1FA9F335D00E2E3AF050
S11306F0E0E832D091505040E695001CCAF72BD068
S1130700FE2F29D0660F771F881FBB1F26173707B8
S11307104807AB07B0E809F0BB0B802DBF01FF27EA
S113072093585F4F3AF09E3F510578F00C941004B3
S11307300C945B045F3FE4F3983ED4F3869577957D
S11307406795B795F7959F5FC9F7880F911D9695A3
S1130750879597F90895E1E0660F771F881FBB1FFF
S1130760621773078407BA0720F0621B730B840BAC
S1130770BA0BEE1F88F7E09508950E94400488F0B4
S11307809F5798F0B92F9927B751B0F0E1F0660F51
S1130790771F881F991F1AF0BA95C9F714C0B13092
S11307A091F00E945A04B1E008950C945A04672F02
S11307B0782F8827B85F39F0B93FCCF386957795C1
S11307C06795B395D9F73EF49095809570956195AA
S11307D07F4F8F4F9F4F0895990F0008550FAA0B15
S11307E0E0E8FEEF16161706E807F907C0F0121640
S11307F01306E407F50798F0621B730B840B950B43
S113080039F40A2661F0232B242B252B21F4089597
S11308100A2609F4A140A6958FEF811D811D089534
S113082097F99F6780E870E060E008959FEF80EC9F
S1130830089500240A941616170618060906089542
S113084000240A9412161306140605060895092EA8
S11308500394000C11F4882352F0BB0F40F4BF2B17
S113086011F460FF04C06F5F7F4F8F4F9F4F089557
S113087057FD9058440F551F59F05F3F71F047954D
S1130880880F97FB991F61F09F3F79F08795089532
S1130890121613061406551FF2CF4695F1DF08C051
S11308A0161617061806991FF1CF8695710561056E
S11308B008940895E894BB2766277727CB0197F916
S10908C00895F894FFCF37
S11308C6013010002000300040005000600070002D
S11308D680009000A000B000C000D000E000F0004E
S11308E60001100120013001400150016001700136
S11308F680019001A001B001C001D001E001F00126
S1130906000210022002300240025002600270020D
S113091680029002A002B002C002D002E002F002FD
S113092600031003200330034003500360037003E5
S113093680039003A003B003C003D003E003F003D5
S113094600041004200430044004500460047004BD
S113095680049004A004B004C004D004E004F004AD
S11309660005100520053005400550056005700595
S113097680059005A005B005C005D005E005F00585
S1130986000610062006300640065006600670066D
S113099680069006A006B006C006D006E006F0065D
S11309A60007100720073007400750076007700745
S11309B680079007A007B007C007D007E007F00735
S11309C600080F081F082F083F084F085F086F0824
S11309D67F088F089F08AF08BF08CF08DF08EF0815
S11309E6FF080F091F092F093F094F095F096F09FE
S11309F67F098F099F09AF09BF09CF09DF09EF09ED
S1130A06FF090F0A1F0A2F0A3F0A4F0A5F0A6F0AD5
S1130A167F0A8F0A9F0AAF0ABF0ACF0ADF0AEF0AC4
S1130A26FF0A0F0B1F0B2F0B3F0B4F0B5F0B6F0BAD
S1130A367F0B8F0B9F0BAF0BBF0BCF0BDF0BEF0B9C
S1130A46FF0B0F0C1F0C2F0C3F0C4F0C5F0C6F0C85
S1130A567F0C8F0C9F0CAF0CBF0CCF0CDF0CEF0C74
S1130A66FF0C0F0D1F0D2F0D3F0D4F0D5F0D6F0D5D
S1130A767F0D8F0D9F0DAF0DBF0DCF0DDF0DEF0D4C
S1130A86FF0D0F0E1F0E2F0E3F0E4F0E5F0E6F0E35
S1130A967F0E8F0E9F0EAF0EBF0ECF0EDF0EEF0E24
S1130AA6FF0E0F0F1F0F2F0F3F0F4F0F5F0F6F0F0D
S1130AB67F0F8F0F9F0FAF0FBF0FCF0FDF0FEF0FFC
S1130AC6FF0F0008320864089608C808FA082C09BB
S1130AD65E098F09C009F109220A520A820AB10A7B
S1130AE6E00A0F0B3D0B6B0B980BC50BF10B1C0CA3
S1130AF6470C710C9A0CC30CEB0C120D390D5F0DDF
S1130B06830DA70DCA0DED0D0E0E2E0E4E0E6C0E98
S1130B168A0EA60EC10EDC0EF50E0D0F240F3A0F2B
S1130B264F0F630F760F870F980FA70FB50FC20FDE
S1130B36CD0FD80FE10FE90FF00FF50FF90FFD0FE9
S1130B46FE0FFF0FFE0FFD0FF90FF50FF00FE90F64
S1130B56E10FD80FCD0FC20FB50FA70F980F870F50
S1130B66760F630F4F0F3A0F240F0D0FF50EDC0EA1
S1130B76C10EA60E8A0E6C0E4E0E2E0E0E0EED0D28
S1130B86CA0DA70D830D5F0D390D120DEB0CC30CA9
S1130B969A0C710C470C1C0CF10BC50B980B6B0BC8
S1130BA63D0B0F0BE00AB10A820A520A220AF10926
S1130BB6C0098F095E092C09FA08C8089608640852
S1130BC632080008CD079B07690737070507D306D0
S1130BD6A10670063F060E06DD05AD057D054E052C
S1130BE61F05F004C204940467043A040E04E303E4
S1130BF6B8038E0365033C031403ED02C602A00288
S1130C067C02580235021202F101D101B1019301AD
S1130C16750159013E0123010A01F200DB00C500FA
S1130C26B0009C0089007800670058004A003D0027
S1130C36320027001E0016000F000A0006000200FC
S1130C46010000000100020006000A000F00160061
S1130C561E00270032003D004A0058006700780055
S1130C6689009C00B000C500DB00F2000A012301E4
S1130C763E01590175019301B101D101F10112023D
S1130C86350258027C02A002C602ED0214033C039C
S1130C9665038E03B803E3030E043A04670494045D
S1130CA6C204F0041F054E057D05AD05DD050E06DF
S1130CB63F067006A106D3060507370769079B0793
S1050CC6CD0754
S9030000FC
