:020000020000FC
:02000000FFC13E
:1004000010E029D164D1AFEFADBFAFE3AEBF0CE0D8
:100410000093A20686D178940FEF009341060093D3
:10042000440630E0303049F0313019F03230A1F17B
:10043000F9CF67D150FF06C015C063D10FEF00930D
:100440004406F0CF0091440640933F00001F4091C6
:100450003F0078940093440625D124D10F3709F446
:100460005395E0CF0091440640933F00079540919B
:100470003F0078940093440615D114D10E3F19F42F
:1004800060FF03C05A9560E0CDCF60E050E032E0FD
:100490000FEF00934406C6CF00E01FEF2FEF21D1EE
:1004A0000091A80603FDBECF0EEF0093440631E095
:0A04B00050E027D1F7D0F6D0B5CF09
:0201A0002FC26C
:100600009FD00F930091A80602FD20C0303029F43E
:1006100033950EEF0093440619C0313071F461E058
:10062000503021F4009144060E3F51F461E0513006
:1006300021F4009144060E3F19F4323039F406C01B
:1006400060E032E00FEF0093440600C001E0009349
:10065000AC060F9118950F931F9302E00093500082
:10066000009151000270023009F0FACF08ED0093BA
:100670003400109341000093340001E000934000E7
:100680001F910F9108950F9301E00093000903E774
:10069000009301090FEF0093260900E0009327095A
:1006A0000F9108950F9307E00093400805E300932E
:1006B00066080CE00093670800914C0800FFFCCF2F
:1006C00000934C0800E0009340080F910895DBDF91
:1006D0000F9300E70093610607E000936E060F9109
:1006E00008950F930093280900E0009329091093BF
:1006F0002A0900932B0920932C0900932D090F91AF
:1007000008950F930FEF0093280900932909009390
:100710002A0900932B0900932C0900932D090F91AE
:1007200008950F9301E00093A90604E00093AA0640
:1007300002E00093B20601E00093A2000F91089539
:100740000F9307E00093000800E80093260800E0FC
:100750000093270800910C0800FFFCCF01E00093F4
:100760000C0800E00093200800E0009300080F91BF
:020770000895EA
:00000001FF
