:020000020000FC
:02000000FFC13E
:1004000010E0FED0AFEFADBFAFE3AEBF04E00093AE
:10041000A20600E4009361060FEF009341060093EB
:10042000440601E00093A90604E00093AA0602E056
:100430000093B20601E00093A20078941FEF0093AE
:040440006706FDCF7F
:0201A0002FC36B
:100600000F931F9302E0009350000091510002707D
:10061000023009F0FACF08ED009334001093410046
:100620000093340001E0009340001F910F91089562
:1006A0000F9301E00093000903E4009301090FEFA9
:1006B0000093260900E00093270900EF00932C091E
:0A06C00000E000932D090F9108954A
:0E08000001E00093AC061A951093440618957B
:00000001FF
