:020000020000FC
:02000000FFC03F
:1002000078944ED210E0FCD14BD300E0009301066D
:100210000FEF00934106E0E2EBBFF0E0E0E0C0E268
:10022000CABFD0E0C0E000910C08102F007100316F
:1002300009F0F9CF1B7F10930C0800910806088382
:08024000108110934406EFCF7A
:100600000F931F9302E0009350000091510002707D
:10061000023009F0FACF08ED009334001093410046
:100620000093340001E0009340001F910F91089562
:1006A0000F930E2F0F930F2F0F9300913B000F937B
:1006B00000E0009301070FEF0093210707EF00937D
:1006C000E10601E400934004E0E0EBBFE2E5F4E082
:1006D00000E0019300E200830DE1009350040F91CC
:1006E000E02F0BBF0F91F02F0F91E02F0F91089586
:1008A0000F9307E00093000800E0009326080093F0
:1008B00028080DE700932708009329080F91089551
:00000001FF
