S01100004861726446696E616C2E73726563AA
S11300000C94FE000C9416010C9416010C94160129
S11300100C9416010C9416010C9416010C94160100
S11300200C9416010C9416010C9416010C941601F0
S11300300C9416010C9416010C94A7010C9416014F
S11300400C9416010C9416010C9416010C941601D0
S11300500C9416010C9416010C9416010C941601C0
S11300600C9416010C9416010C9416010C941601B0
S11300700C9416010C9416010C9416010C941601A0
S11300800C9416010C9416010C9416010C94160190
S11300900C9416010C9416010C9416010C94160180
S11300A00C9416010C9416010C9416010C94160170
S11300B00C9416010C9416010C9416010C94160160
S11300C00C9416010C9416010C9416010C94160150
S11300D00C9416010C9416010C9416010C94160140
S11300E00C9416010C9416010C9416010C94160130
S11300F00C9416010C9416010C9416010C94160120
S11301000C9416010C9416010C9416010C9416010F
S11301100C9416010C9416010C9416010C9488018D
S11301200C9416010C9416010C9416010C941601EF
S11301300C9416010C9416010C9416010C941601DF
S11301400C9416010C9416010C9416010C941601CF
S11301500C9416010C9416010C9416010C941601BF
S11301600C9424020C9416010C9416010C941601A0
S11301700C9416010C9416010C9416010C9416019F
S11301800C9416010C9416010C9416010C9416018F
S11301900C9416010C9416010C9416010C9416017F
S11301A00C9416010C9416010C9416010C9416016F
S11301B00C9416010C9416010C9416010C9416015F
S11301C00C9416010C9416010C9416010C9416014F
S11301D00C9416010C9416010C9416010C9416013F
S11301E00C9416010C9416010C9416010C9416012F
S11301F00C9416010C9416010C94160111241FBEC4
S1130200CFEFCDBFDFE3DEBF00E00CBF18BE19BEE9
S11302101ABE1BBE20E2A0E0B0E201C01D92A130D4
S1130220B207E1F70E9473010C9406040C940000D9
S113023082E0809350008091510081FFFCCF88EDD3
S113024084BF91E09093400084BF109241000895D0
S113025085E08093A2008FB780688FBF089580E304
S11302608093020288E18093010283E08093040278
S113027091E2909321028093200281E080932202F4
S113028085E080930002089584E080930106E0E015
S1130290F3E0118288E18283108E118E85E08083E1
S11302A008958CE892E0809326089093270881E0D3
S11302B08093060880930008089588E0809361067F
S11302C080E18093620685EF8093A6098CEC80938D
S11302D0A70983E08093A50988E18093A40980E3BA
S11302E08093A30908950E9418010E945D010E9451
S11302F028010E942F010E9444010E94510180EEB6
S11303008093020685E0809301060E944401FFCF9A
S11303101F920F920FB60F92112408B60F9218BEB7
S11303200BB60F921BBE8F93EF93FF93E0E2F2E0C4
S1130330808180688083FF91EF918F910F900BBE35
S11303400F9008BE0F900FBE0F901F9018951F922C
S11303500F920FB60F92112408B60F9218BE09B669
S11303600F9219BE0BB60F921BBECF92DF92EF9283
S1130370FF922F933F934F935F936F937F938F934A
S11303809F93AF93BF93EF93FF9381E0809307060E
S1130390609110027091110280E090E00E94E202EC
S11303A02AE038ED4FE95AE30E94750320E030EC6F
S11303B04CEC54E40E9475036B017C0120E030EFA7
S11303C04FE755E40E94700318161CF4C12CD12C7D
S11303D0760180910020811103C0C701B60113C0CA
S11303E0813049F420E030E040E05FE3C701B6012A
S11303F00E94750308C0823061F4A7019601C70109
S1130400B6010E9447020E94B302609318037093DE
S11304101903FF91EF91BF91AF919F918F917F91BC
S11304206F915F914F913F912F91FF90EF90DF90EB
S1130430CF900F900BBE0F9009BE0F9008BE0F9087
S11304400FBE0F901F9018951F920F920FB60F9228
S1130450112408B60F9218BE8F938091A0098F7D46
S1130460843419F41092002009C0883411F481E016
S113047003C0843519F482E0809300208F910F909B
S113048008BE0F900FBE0F901F9018955058BB27B1
S1130490AA270E945E020C9436030E94280338F0B7
S11304A00E942F0320F039F49F3F19F426F40C9492
S11304B025030EF4E095E7FB0C941F03E92F0E943B
S11304C0470358F3BA17620773078407950720F0A8
S11304D079F4A6F50C9469030EF4E0950B2EBA2F6B
S11304E0A02D0B01B90190010C01CA01A001112436
S11304F0FF27591B99F0593F50F4503E68F11A16E2
S1130500F040A22F232F342F4427585FF3CF469572
S113051037952795A795F0405395C9F77EF41F1694
S1130520BA0B620B730B840BBAF09150A1F0FF0F5E
S1130530BB1F661F771F881FC2F70EC0BA0F621F4A
S1130540731F841F48F4879577956795B795F7953A
S11305509E3F08F0B0CF9395880F08F09927EE0FCF
S11305609795879508950E944F0388F09F5798F0B8
S1130570B92F9927B751B0F0E1F0660F771F881FA4
S1130580991F1AF0BA95C9F714C0B13091F00E94BE
S11305906903B1E008950C946903672F782F8827C5
S11305A0B85F39F0B93FCCF3869577956795B395E5
S11305B0D9F73EF490958095709561957F4F8F4F54
S11305C09F4F0895E89409C097FB3EF49095809559
S11305D0709561957F4F8F4F9F4F9923A9F0F92F05
S11305E096E9BB279395F695879577956795B79583
S11305F0F111F8CFFAF4BB0F11F460FF1BC06F5F69
S11306007F4F8F4F9F4F16C0882311F096E911C07A
S1130610772321F09EE8872F762F05C0662371F09B
S113062096E8862F70E060E02AF09A95660F771FAF
S1130630881FDAF7880F9695879597F9089597F9A3
S11306409F6780E870E060E008959FEF80EC089574
S113065000240A941616170618060906089500249D
S11306600A9412161306140605060895092E039417
S1130670000C11F4882352F0BB0F40F4BF2B11F48B
S113068060FF04C06F5F7F4F8F4F9F4F089557FDEA
S11306909058440F551F59F05F3F71F04795880FEC
S11306A097FB991F61F09F3F79F087950895121683
S11306B013061406551FF2CF4695F1DF08C016162F
S11306C017061806991FF1CF8695710561050894E0
S11306D00895E894BB2766277727CB0197F90895F7
S11306E00E94E20308F48FEF08950E9488030C949B
S11306F036030E94280338F00E942F0320F095232C
S113070011F00C941F030C94250311240C946A0318
S11307100E94470370F3959FC1F3950F50E0551F56
S1130720629FF001729FBB27F00DB11D639FAA2742
S1130730F00DB11DAA1F649F6627B00DA11D661F91
S1130740829F2227B00DA11D621F739FB00DA11DB2
S1130750621F839FA00D611D221F749F3327A00D6C
S1130760611D231F849F600D211D822F762F6A2F08
S113077011249F5750409AF0F1F088234AF0EE0F6D
S1130780FF1FBB1F661F771F881F91505040A9F79A
S11307909E3F510580F00C941F030C946A035F3F45
S11307A0E4F3983ED4F3869577956795B795F795D6
S11307B0E7959F5FC1F7FE2B880F911D969587954E
S11307C097F90895990F0008550FAA0BE0E8FEEF7A
S11307D016161706E807F907C0F012161306E40701
S11307E0F50798F0621B730B840B950B39F40A26FA
S11307F061F0232B242B252B21F408950A2609F4D8
S1130800A140A6958FEF811D811D0895F894FFCF17
S9030000FC
