:100000000C94FE000C9416010C94AA010C94160199
:100010000C9416010C9416010C9416010C94160104
:100020000C9416010C9416010C9416010C941601F4
:100030000C9416010C9416010C9416010C941601E4
:100040000C9416010C9416010C9416010C941601D4
:100050000C9416010C9416010C9416010C941601C4
:100060000C9416010C9416010C9416010C941601B4
:100070000C9416010C9416010C9416010C941601A4
:100080000C9416010C9416010C9416010C94160194
:100090000C9416010C9416010C9416010C94160184
:1000A0000C9416010C9416010C9416010C94160174
:1000B0000C9416010C9416010C9416010C94160164
:1000C0000C9416010C9416010C9416010C94160154
:1000D0000C9416010C9416010C9416010C94160144
:1000E0000C9416010C9416010C9416010C94160134
:1000F0000C9416010C9416010C9416010C94160124
:100100000C9416010C9416010C9416010C94160113
:100110000C9416010C9416010C9416010C94160103
:100120000C9416010C9416010C9416010C941601F3
:100130000C9416010C9416010C9416010C941601E3
:100140000C9416010C9416010C9416010C941601D3
:100150000C9416010C9416010C9416010C941601C3
:100160000C9416010C9416010C9416010C941601B3
:100170000C9416010C9416010C9416010C941601A3
:100180000C9416010C9416010C9416010C94160193
:100190000C9416010C9416010C9416010C94160183
:1001A0000C9416010C9416010C9416010C94160173
:1001B0000C9416010C9416010C9416010C94160163
:1001C0000C9416010C9416010C9416010C94160153
:1001D0000C9416010C9416010C9416010C94160143
:1001E0000C9416010C9416010C9416010C94160133
:1001F0000C9416010C9416010C94160111241FBEC8
:10020000CFEFCDBFDFE3DEBF00E00CBF18BE19BEED
:100210001ABE1BBE20E2A0E0B0E201C01D92A130D8
:10022000B207E1F70E9457010C9412020C940000EF
:1002300082E0809350008091510081FFFCCF88EDD7
:1002400084BF91E09093400084BF109241000895D4
:1002500080E78093610687E080936E0681E080935B
:10026000000983E7809301098FEF9FEF80932609B0
:100270009093270910926506089580959095809334
:100280002809909329096095709560932A097093C5
:100290002B094095509540932C0950932D090895B2
:1002A00081E08093A2008FB780688FBF0895CF93BD
:1002B000DF9300D000D0CDB7DEB70E9418010E94B6
:1002C00028010E9450010E94DB01809100208823B8
:1002D000E1F388E20E94BE01182F89E20E94BE016C
:1002E000212F30E0382B2D833E838AE20E94BE010D
:1002F000182F8BE20E94BE01212F30E0382B2B8378
:100300003C838CE20E94BE01182F8DE20E94BE0148
:10031000212F30E0382B29833A838D819E818D8176
:100320009E818D839E838B819C818B819C818B831D
:100330009C8389819A8189819A8189839A83498161
:100340005A816B817C818D819E810E943D0110923A
:100350000020BBCF1F920F920FB60F92112408B648
:100360000F9218BE8F9381E0809300208F910F90A1
:1003700008BE0F900FBE0F901F901895CF93C8E046
:10038000C093A60680680E9406020E940F02C093D6
:10039000A506CF910895CF93DF93D62FC8E0C093E1
:1003A000A6060E9406028D2F0E940602C093A50693
:1003B000DF91CF91089580E1809301068093060636
:1003C0008CE18093A5060E94FC0161E083E20E941B
:1003D000CB0180E88093420692E090935706809389
:1003E0004A0681E08093490668EC83E20E94CB01D3
:1003F00067E980E20C94CB018CEB8093A10683E447
:100400008093A20680E58093C00B08958093C30B70
:100410008091C20B87FFFCCF8091C30B08958FEFB3
:080420000C940602F894FFCFD2
:00000001FF
