:020000020000FC
:02000000FFC13E
:1004000010E00DD148D1AFEFADBFAFE3AEBF04E018
:100410000093A2066AD1789430E0303039F0313060
:1004200039F0323081F03330C9F0F7CF4ED1F5CF0B
:1004300005E019EB29EE39D119D10FEF1EED2AE5B0
:1004400034D114D1EACF0DE310EE20EE2ED10ED12F
:1004500003EC12E722EF29D109D1DFCF05E713ED35
:1004600025E623D103D106EB10E028EF1ED1FED004
:02047000D4CFE7
:0201A0002FC26C
:1006000083D00F930091A80602FD04C033953430C7
:100610000CF030E001E00093AC060F9118950F93B9
:100620001F9302E0009350000091510002700230CD
:1006300009F0FACF08ED00933400109341000093C5
:10064000340001E0009340001F910F9108950F9333
:1006500001E00093000903E7009301090FEF009305
:10066000260900E0009327090F9108950F9307E0F2
:100670000093400805E3009366080CE000936708C8
:1006800000914C0800FFFCCF00934C0800E0009361
:1006900040080F910895DBDF0F9300E70093610698
:1006A00007E000936E060F9108950F9300932809B9
:1006B00000E00093290910932A0900932B09209345
:1006C0002C0900932D090F9108950F930FEF0093BC
:1006D00028090093290900932A0900932B09009304
:1006E0002C0900932D090F9108950F9301E00093B9
:1006F000A90604E00093AA0602E00093B20601E016
:100700000093A2000F9108950F9307E00093000853
:1007100000E80093260800E00093270800910C08E9
:1007200000FFFCCF01E000930C0800E000932008DC
:0A07300000E0009300080F91089507
:00000001FF
